{
  "address": "0x5d2d16320b7B2cEDe53D857681DE889e380d0Da1",
  "abi": [
    {
      "inputs": [
        {
          "internalType": "address",
          "name": "VRFCoordinatorV2",
          "type": "address"
        },
        {
          "internalType": "bytes32",
          "name": "keyHash",
          "type": "bytes32"
        },
        {
          "internalType": "uint64",
          "name": "subscriptionID",
          "type": "uint64"
        },
        {
          "internalType": "uint32",
          "name": "callbackGasLimit",
          "type": "uint32"
        },
        {
          "internalType": "string[4]",
          "name": "HunterUris",
          "type": "string[4]"
        },
        {
          "internalType": "uint256",
          "name": "mintFee",
          "type": "uint256"
        }
      ],
      "stateMutability": "nonpayable",
      "type": "constructor"
    },
    {
      "inputs": [
        {
          "internalType": "address",
          "name": "have",
          "type": "address"
        },
        {
          "internalType": "address",
          "name": "want",
          "type": "address"
        }
      ],
      "name": "OnlyCoordinatorCanFulfill",
      "type": "error"
    },
    {
      "inputs": [],
      "name": "RandomIPFSNFT__NeedMoreEth",
      "type": "error"
    },
    {
      "inputs": [],
      "name": "RandomIPFSNFT__RangeOutOfBounds",
      "type": "error"
    },
    {
      "inputs": [],
      "name": "RandomIPFSNFT__WithdrawlFailed",
      "type": "error"
    },
    {
      "anonymous": false,
      "inputs": [
        {
          "indexed": true,
          "internalType": "address",
          "name": "owner",
          "type": "address"
        },
        {
          "indexed": true,
          "internalType": "address",
          "name": "approved",
          "type": "address"
        },
        {
          "indexed": true,
          "internalType": "uint256",
          "name": "tokenId",
          "type": "uint256"
        }
      ],
      "name": "Approval",
      "type": "event"
    },
    {
      "anonymous": false,
      "inputs": [
        {
          "indexed": true,
          "internalType": "address",
          "name": "owner",
          "type": "address"
        },
        {
          "indexed": true,
          "internalType": "address",
          "name": "operator",
          "type": "address"
        },
        {
          "indexed": false,
          "internalType": "bool",
          "name": "approved",
          "type": "bool"
        }
      ],
      "name": "ApprovalForAll",
      "type": "event"
    },
    {
      "anonymous": false,
      "inputs": [
        {
          "indexed": false,
          "internalType": "enum RandomIPFSNFT.HunterType",
          "name": "hunter",
          "type": "uint8"
        },
        {
          "indexed": false,
          "internalType": "address",
          "name": "minter",
          "type": "address"
        }
      ],
      "name": "NFTminted",
      "type": "event"
    },
    {
      "anonymous": false,
      "inputs": [
        {
          "indexed": true,
          "internalType": "uint256",
          "name": "requestId",
          "type": "uint256"
        },
        {
          "indexed": true,
          "internalType": "address",
          "name": "requester",
          "type": "address"
        }
      ],
      "name": "NFTrequested",
      "type": "event"
    },
    {
      "anonymous": false,
      "inputs": [
        {
          "indexed": true,
          "internalType": "address",
          "name": "previousOwner",
          "type": "address"
        },
        {
          "indexed": true,
          "internalType": "address",
          "name": "newOwner",
          "type": "address"
        }
      ],
      "name": "OwnershipTransferred",
      "type": "event"
    },
    {
      "anonymous": false,
      "inputs": [
        {
          "indexed": true,
          "internalType": "address",
          "name": "from",
          "type": "address"
        },
        {
          "indexed": true,
          "internalType": "address",
          "name": "to",
          "type": "address"
        },
        {
          "indexed": true,
          "internalType": "uint256",
          "name": "tokenId",
          "type": "uint256"
        }
      ],
      "name": "Transfer",
      "type": "event"
    },
    {
      "inputs": [
        {
          "internalType": "address",
          "name": "to",
          "type": "address"
        },
        {
          "internalType": "uint256",
          "name": "tokenId",
          "type": "uint256"
        }
      ],
      "name": "approve",
      "outputs": [],
      "stateMutability": "nonpayable",
      "type": "function"
    },
    {
      "inputs": [
        {
          "internalType": "address",
          "name": "owner",
          "type": "address"
        }
      ],
      "name": "balanceOf",
      "outputs": [
        {
          "internalType": "uint256",
          "name": "",
          "type": "uint256"
        }
      ],
      "stateMutability": "view",
      "type": "function"
    },
    {
      "inputs": [
        {
          "internalType": "uint256",
          "name": "tokenId",
          "type": "uint256"
        }
      ],
      "name": "getApproved",
      "outputs": [
        {
          "internalType": "address",
          "name": "",
          "type": "address"
        }
      ],
      "stateMutability": "view",
      "type": "function"
    },
    {
      "inputs": [
        {
          "internalType": "uint256",
          "name": "moddedRng",
          "type": "uint256"
        }
      ],
      "name": "getBreedFromModdedRng",
      "outputs": [
        {
          "internalType": "enum RandomIPFSNFT.HunterType",
          "name": "",
          "type": "uint8"
        }
      ],
      "stateMutability": "pure",
      "type": "function"
    },
    {
      "inputs": [],
      "name": "getChanceArray",
      "outputs": [
        {
          "internalType": "uint256[4]",
          "name": "",
          "type": "uint256[4]"
        }
      ],
      "stateMutability": "pure",
      "type": "function"
    },
    {
      "inputs": [
        {
          "internalType": "uint256",
          "name": "index",
          "type": "uint256"
        }
      ],
      "name": "getHunterUris",
      "outputs": [
        {
          "internalType": "string",
          "name": "",
          "type": "string"
        }
      ],
      "stateMutability": "view",
      "type": "function"
    },
    {
      "inputs": [],
      "name": "getMintFee",
      "outputs": [
        {
          "internalType": "uint256",
          "name": "",
          "type": "uint256"
        }
      ],
      "stateMutability": "view",
      "type": "function"
    },
    {
      "inputs": [
        {
          "internalType": "uint256",
          "name": "requestId",
          "type": "uint256"
        }
      ],
      "name": "getRequestIdToSender",
      "outputs": [
        {
          "internalType": "address",
          "name": "",
          "type": "address"
        }
      ],
      "stateMutability": "view",
      "type": "function"
    },
    {
      "inputs": [],
      "name": "getTokenCounter",
      "outputs": [
        {
          "internalType": "uint256",
          "name": "",
          "type": "uint256"
        }
      ],
      "stateMutability": "view",
      "type": "function"
    },
    {
      "inputs": [
        {
          "internalType": "address",
          "name": "owner",
          "type": "address"
        },
        {
          "internalType": "address",
          "name": "operator",
          "type": "address"
        }
      ],
      "name": "isApprovedForAll",
      "outputs": [
        {
          "internalType": "bool",
          "name": "",
          "type": "bool"
        }
      ],
      "stateMutability": "view",
      "type": "function"
    },
    {
      "inputs": [],
      "name": "name",
      "outputs": [
        {
          "internalType": "string",
          "name": "",
          "type": "string"
        }
      ],
      "stateMutability": "view",
      "type": "function"
    },
    {
      "inputs": [],
      "name": "owner",
      "outputs": [
        {
          "internalType": "address",
          "name": "",
          "type": "address"
        }
      ],
      "stateMutability": "view",
      "type": "function"
    },
    {
      "inputs": [
        {
          "internalType": "uint256",
          "name": "tokenId",
          "type": "uint256"
        }
      ],
      "name": "ownerOf",
      "outputs": [
        {
          "internalType": "address",
          "name": "",
          "type": "address"
        }
      ],
      "stateMutability": "view",
      "type": "function"
    },
    {
      "inputs": [
        {
          "internalType": "uint256",
          "name": "requestId",
          "type": "uint256"
        },
        {
          "internalType": "uint256[]",
          "name": "randomWords",
          "type": "uint256[]"
        }
      ],
      "name": "rawFulfillRandomWords",
      "outputs": [],
      "stateMutability": "nonpayable",
      "type": "function"
    },
    {
      "inputs": [],
      "name": "renounceOwnership",
      "outputs": [],
      "stateMutability": "nonpayable",
      "type": "function"
    },
    {
      "inputs": [],
      "name": "requestNFT",
      "outputs": [
        {
          "internalType": "uint256",
          "name": "requestId",
          "type": "uint256"
        }
      ],
      "stateMutability": "payable",
      "type": "function"
    },
    {
      "inputs": [
        {
          "internalType": "address",
          "name": "from",
          "type": "address"
        },
        {
          "internalType": "address",
          "name": "to",
          "type": "address"
        },
        {
          "internalType": "uint256",
          "name": "tokenId",
          "type": "uint256"
        }
      ],
      "name": "safeTransferFrom",
      "outputs": [],
      "stateMutability": "nonpayable",
      "type": "function"
    },
    {
      "inputs": [
        {
          "internalType": "address",
          "name": "from",
          "type": "address"
        },
        {
          "internalType": "address",
          "name": "to",
          "type": "address"
        },
        {
          "internalType": "uint256",
          "name": "tokenId",
          "type": "uint256"
        },
        {
          "internalType": "bytes",
          "name": "data",
          "type": "bytes"
        }
      ],
      "name": "safeTransferFrom",
      "outputs": [],
      "stateMutability": "nonpayable",
      "type": "function"
    },
    {
      "inputs": [
        {
          "internalType": "address",
          "name": "operator",
          "type": "address"
        },
        {
          "internalType": "bool",
          "name": "approved",
          "type": "bool"
        }
      ],
      "name": "setApprovalForAll",
      "outputs": [],
      "stateMutability": "nonpayable",
      "type": "function"
    },
    {
      "inputs": [
        {
          "internalType": "bytes4",
          "name": "interfaceId",
          "type": "bytes4"
        }
      ],
      "name": "supportsInterface",
      "outputs": [
        {
          "internalType": "bool",
          "name": "",
          "type": "bool"
        }
      ],
      "stateMutability": "view",
      "type": "function"
    },
    {
      "inputs": [],
      "name": "symbol",
      "outputs": [
        {
          "internalType": "string",
          "name": "",
          "type": "string"
        }
      ],
      "stateMutability": "view",
      "type": "function"
    },
    {
      "inputs": [
        {
          "internalType": "uint256",
          "name": "tokenId",
          "type": "uint256"
        }
      ],
      "name": "tokenURI",
      "outputs": [
        {
          "internalType": "string",
          "name": "",
          "type": "string"
        }
      ],
      "stateMutability": "view",
      "type": "function"
    },
    {
      "inputs": [
        {
          "internalType": "address",
          "name": "from",
          "type": "address"
        },
        {
          "internalType": "address",
          "name": "to",
          "type": "address"
        },
        {
          "internalType": "uint256",
          "name": "tokenId",
          "type": "uint256"
        }
      ],
      "name": "transferFrom",
      "outputs": [],
      "stateMutability": "nonpayable",
      "type": "function"
    },
    {
      "inputs": [
        {
          "internalType": "address",
          "name": "newOwner",
          "type": "address"
        }
      ],
      "name": "transferOwnership",
      "outputs": [],
      "stateMutability": "nonpayable",
      "type": "function"
    },
    {
      "inputs": [],
      "name": "withdraw",
      "outputs": [],
      "stateMutability": "nonpayable",
      "type": "function"
    }
  ],
  "transactionHash": "0x85107ea92554a09051a7055a01647cd9bd54717624825d802aa2cdc34539e3fa",
  "args": [
    "0x2Ca8E0C643bDe4C2E08ab1fA0da3401AdAD7734D",
    "0x79d3d8832d904592c0bf9818b621522c988bb8b0c05cdc3b15aea1b6e8db0c15",
    "2590",
    "500000",
    [
      "ipfs://QmNeyLyT1gdJUMt2D8ZcfSjGaqwXxYtHoTow2tMow9cQC1",
      "ipfs://QmURuv4K61FAx6ujfPsR5xpim9mNeEXnyib6z471sYGmRi",
      "ipfs://QmPkwvtkY45y2mqgAoGVHasgmJAnbaJZ3Vj7bUyEqYfYfh",
      "ipfs://QmccEJcpwysGmf1Jykw6trbKH9FZrdL4iGtNCu3sFbyoE7"
    ],
    "100000000000000000"
  ],
  "numDeployments": 1,
  "solcInputHash": "c3708cb30c1ac675a74ba62dc5521144",
  "bytecode": "0x6101406040523480156200001257600080fd5b506040516200454a3803806200454a83398181016040528101906200003891906200080b565b6040518060400160405280600681526020017f48756e74657200000000000000000000000000000000000000000000000000008152506040518060400160405280600481526020017f48554e5400000000000000000000000000000000000000000000000000000000815250878073ffffffffffffffffffffffffffffffffffffffff1660808173ffffffffffffffffffffffffffffffffffffffff1660601b81525050508160009080519060200190620000f59291906200029e565b5080600190805190602001906200010e9291906200029e565b5050506200013162000125620001d060201b60201c565b620001d860201b60201c565b8573ffffffffffffffffffffffffffffffffffffffff1660a08173ffffffffffffffffffffffffffffffffffffffff1660601b815250508460c081815250508367ffffffffffffffff1660e08167ffffffffffffffff1660c01b815250508263ffffffff166101008163ffffffff1660e01b8152505081600a906004620001ba9291906200032f565b508061012081815250505050505050506200092b565b600033905090565b6000600760009054906101000a900473ffffffffffffffffffffffffffffffffffffffff16905081600760006101000a81548173ffffffffffffffffffffffffffffffffffffffff021916908373ffffffffffffffffffffffffffffffffffffffff1602179055508173ffffffffffffffffffffffffffffffffffffffff168173ffffffffffffffffffffffffffffffffffffffff167f8be0079c531659141344cd1fd0a4f28419497f9722a3daafe3b4186f6b6457e060405160405180910390a35050565b828054620002ac90620008f5565b90600052602060002090601f016020900481019282620002d057600085556200031c565b82601f10620002eb57805160ff19168380011785556200031c565b828001600101855582156200031c579182015b828111156200031b578251825591602001919060010190620002fe565b5b5090506200032b919062000396565b5090565b82805482825590600052602060002090810192821562000383579160200282015b8281111562000382578251829080519060200190620003719291906200029e565b509160200191906001019062000350565b5b509050620003929190620003b5565b5090565b5b80821115620003b157600081600090555060010162000397565b5090565b5b80821115620003d95760008181620003cf9190620003dd565b50600101620003b6565b5090565b508054620003eb90620008f5565b6000825580601f10620003ff575062000420565b601f0160209004906000526020600020908101906200041f919062000396565b5b50565b6000604051905090565b600080fd5b600080fd5b600073ffffffffffffffffffffffffffffffffffffffff82169050919050565b6000620004648262000437565b9050919050565b620004768162000457565b81146200048257600080fd5b50565b60008151905062000496816200046b565b92915050565b6000819050919050565b620004b1816200049c565b8114620004bd57600080fd5b50565b600081519050620004d181620004a6565b92915050565b600067ffffffffffffffff82169050919050565b620004f681620004d7565b81146200050257600080fd5b50565b6000815190506200051681620004eb565b92915050565b600063ffffffff82169050919050565b62000537816200051c565b81146200054357600080fd5b50565b60008151905062000557816200052c565b92915050565b600080fd5b6000601f19601f8301169050919050565b7f4e487b7100000000000000000000000000000000000000000000000000000000600052604160045260246000fd5b620005ad8262000562565b810181811067ffffffffffffffff82111715620005cf57620005ce62000573565b5b80604052505050565b6000620005e462000423565b9050620005f28282620005a2565b919050565b600067ffffffffffffffff82111562000615576200061462000573565b5b602082029050919050565b600080fd5b600080fd5b600067ffffffffffffffff82111562000648576200064762000573565b5b620006538262000562565b9050602081019050919050565b60005b838110156200068057808201518184015260208101905062000663565b8381111562000690576000848401525b50505050565b6000620006ad620006a7846200062a565b620005d8565b905082815260208101848484011115620006cc57620006cb62000625565b5b620006d984828562000660565b509392505050565b600082601f830112620006f957620006f86200055d565b5b81516200070b84826020860162000696565b91505092915050565b60006200072b6200072584620005f7565b620005d8565b9050806020840283018581111562000748576200074762000620565b5b835b818110156200079657805167ffffffffffffffff8111156200077157620007706200055d565b5b808601620007808982620006e1565b855260208501945050506020810190506200074a565b5050509392505050565b600082601f830112620007b857620007b76200055d565b5b6004620007c784828562000714565b91505092915050565b6000819050919050565b620007e581620007d0565b8114620007f157600080fd5b50565b6000815190506200080581620007da565b92915050565b60008060008060008060c087890312156200082b576200082a6200042d565b5b60006200083b89828a0162000485565b96505060206200084e89828a01620004c0565b95505060406200086189828a0162000505565b94505060606200087489828a0162000546565b935050608087015167ffffffffffffffff81111562000898576200089762000432565b5b620008a689828a01620007a0565b92505060a0620008b989828a01620007f4565b9150509295509295509295565b7f4e487b7100000000000000000000000000000000000000000000000000000000600052602260045260246000fd5b600060028204905060018216806200090e57607f821691505b60208210811415620009255762000924620008c6565b5b50919050565b60805160601c60a05160601c60c05160e05160c01c6101005160e01c61012051613bb56200099560003960008181610d060152610d2e01526000610e0801526000610de501526000610dc401526000610d880152600081816108d101526109250152613bb56000f3fe6080604052600436106101665760003560e01c806370a08231116100d1578063a22cb4651161008a578063b88d4fde11610064578063b88d4fde14610531578063c87b56dd1461055a578063e985e9c514610597578063f2fde38b146105d457610166565b8063a22cb4651461048e578063a51cccf3146104b7578063a6d37139146104f457610166565b806370a082311461039b578063715018a6146103d85780637a5caab3146103ef5780637abd25d11461041a5780638da5cb5b1461043857806395d89b411461046357610166565b806329313bc21161012357806329313bc21461028b5780633ccfd60b146102c857806342842e0e146102df5780635dacf5f4146103085780636352211e146103335780636e02007d1461037057610166565b806301ffc9a71461016b57806306fdde03146101a8578063081812fc146101d3578063095ea7b3146102105780631fe543e31461023957806323b872dd14610262575b600080fd5b34801561017757600080fd5b50610192600480360381019061018d9190612794565b6105fd565b60405161019f91906127dc565b60405180910390f35b3480156101b457600080fd5b506101bd6106df565b6040516101ca9190612890565b60405180910390f35b3480156101df57600080fd5b506101fa60048036038101906101f591906128e8565b610771565b6040516102079190612956565b60405180910390f35b34801561021c57600080fd5b506102376004803603810190610232919061299d565b6107b7565b005b34801561024557600080fd5b50610260600480360381019061025b9190612b25565b6108cf565b005b34801561026e57600080fd5b5061028960048036038101906102849190612b81565b61098f565b005b34801561029757600080fd5b506102b260048036038101906102ad91906128e8565b6109ef565b6040516102bf9190612890565b60405180910390f35b3480156102d457600080fd5b506102dd610a9f565b005b3480156102eb57600080fd5b5061030660048036038101906103019190612b81565b610b53565b005b34801561031457600080fd5b5061031d610b73565b60405161032a9190612c7f565b60405180910390f35b34801561033f57600080fd5b5061035a600480360381019061035591906128e8565b610ba5565b6040516103679190612956565b60405180910390f35b34801561037c57600080fd5b50610385610c2c565b6040516103929190612ca9565b60405180910390f35b3480156103a757600080fd5b506103c260048036038101906103bd9190612cc4565b610c36565b6040516103cf9190612ca9565b60405180910390f35b3480156103e457600080fd5b506103ed610cee565b005b3480156103fb57600080fd5b50610404610d02565b6040516104119190612ca9565b60405180910390f35b610422610d2a565b60405161042f9190612ca9565b60405180910390f35b34801561044457600080fd5b5061044d610f36565b60405161045a9190612956565b60405180910390f35b34801561046f57600080fd5b50610478610f60565b6040516104859190612890565b60405180910390f35b34801561049a57600080fd5b506104b560048036038101906104b09190612d1d565b610ff2565b005b3480156104c357600080fd5b506104de60048036038101906104d991906128e8565b611008565b6040516104eb9190612dd4565b60405180910390f35b34801561050057600080fd5b5061051b600480360381019061051691906128e8565b6110d4565b6040516105289190612956565b60405180910390f35b34801561053d57600080fd5b5061055860048036038101906105539190612ea4565b611111565b005b34801561056657600080fd5b50610581600480360381019061057c91906128e8565b611173565b60405161058e9190612890565b60405180910390f35b3480156105a357600080fd5b506105be60048036038101906105b99190612f27565b611286565b6040516105cb91906127dc565b60405180910390f35b3480156105e057600080fd5b506105fb60048036038101906105f69190612cc4565b61131a565b005b60007f80ac58cd000000000000000000000000000000000000000000000000000000007bffffffffffffffffffffffffffffffffffffffffffffffffffffffff1916827bffffffffffffffffffffffffffffffffffffffffffffffffffffffff191614806106c857507f5b5e139f000000000000000000000000000000000000000000000000000000007bffffffffffffffffffffffffffffffffffffffffffffffffffffffff1916827bffffffffffffffffffffffffffffffffffffffffffffffffffffffff1916145b806106d857506106d78261139e565b5b9050919050565b6060600080546106ee90612f96565b80601f016020809104026020016040519081016040528092919081815260200182805461071a90612f96565b80156107675780601f1061073c57610100808354040283529160200191610767565b820191906000526020600020905b81548152906001019060200180831161074a57829003601f168201915b5050505050905090565b600061077c82611408565b6004600083815260200190815260200160002060009054906101000a900473ffffffffffffffffffffffffffffffffffffffff169050919050565b60006107c282610ba5565b90508073ffffffffffffffffffffffffffffffffffffffff168373ffffffffffffffffffffffffffffffffffffffff161415610833576040517f08c379a000000000000000000000000000000000000000000000000000000000815260040161082a9061303a565b60405180910390fd5b8073ffffffffffffffffffffffffffffffffffffffff16610852611453565b73ffffffffffffffffffffffffffffffffffffffff16148061088157506108808161087b611453565b611286565b5b6108c0576040517f08c379a00000000000000000000000000000000000000000000000000000000081526004016108b7906130cc565b60405180910390fd5b6108ca838361145b565b505050565b7f000000000000000000000000000000000000000000000000000000000000000073ffffffffffffffffffffffffffffffffffffffff163373ffffffffffffffffffffffffffffffffffffffff161461098157337f00000000000000000000000000000000000000000000000000000000000000006040517f1cf993f40000000000000000000000000000000000000000000000000000000081526004016109789291906130ec565b60405180910390fd5b61098b8282611514565b5050565b6109a061099a611453565b826116ae565b6109df576040517f08c379a00000000000000000000000000000000000000000000000000000000081526004016109d690613187565b60405180910390fd5b6109ea838383611743565b505050565b6060600a8281548110610a0557610a046131a7565b5b906000526020600020018054610a1a90612f96565b80601f0160208091040260200160405190810160405280929190818152602001828054610a4690612f96565b8015610a935780601f10610a6857610100808354040283529160200191610a93565b820191906000526020600020905b815481529060010190602001808311610a7657829003601f168201915b50505050509050919050565b610aa7611a3d565b600047905060003373ffffffffffffffffffffffffffffffffffffffff1682604051610ad290613207565b60006040518083038185875af1925050503d8060008114610b0f576040519150601f19603f3d011682016040523d82523d6000602084013e610b14565b606091505b5050905080610b4f576040517f71ded84900000000000000000000000000000000000000000000000000000000815260040160405180910390fd5b5050565b610b6e83838360405180602001604052806000815250611111565b505050565b610b7b612663565b604051806080016040528060058152602001600f8152602001602381526020016064815250905090565b600080610bb183611abb565b9050600073ffffffffffffffffffffffffffffffffffffffff168173ffffffffffffffffffffffffffffffffffffffff161415610c23576040517f08c379a0000000000000000000000000000000000000000000000000000000008152600401610c1a90613268565b60405180910390fd5b80915050919050565b6000600954905090565b60008073ffffffffffffffffffffffffffffffffffffffff168273ffffffffffffffffffffffffffffffffffffffff161415610ca7576040517f08c379a0000000000000000000000000000000000000000000000000000000008152600401610c9e906132fa565b60405180910390fd5b600360008373ffffffffffffffffffffffffffffffffffffffff1673ffffffffffffffffffffffffffffffffffffffff168152602001908152602001600020549050919050565b610cf6611a3d565b610d006000611af8565b565b60007f0000000000000000000000000000000000000000000000000000000000000000905090565b60007f0000000000000000000000000000000000000000000000000000000000000000341015610d86576040517f7bfe5ee300000000000000000000000000000000000000000000000000000000815260040160405180910390fd5b7f000000000000000000000000000000000000000000000000000000000000000073ffffffffffffffffffffffffffffffffffffffff16635d3b1d307f00000000000000000000000000000000000000000000000000000000000000007f000000000000000000000000000000000000000000000000000000000000000060037f000000000000000000000000000000000000000000000000000000000000000060016040518663ffffffff1660e01b8152600401610e49959493929190613392565b602060405180830381600087803b158015610e6357600080fd5b505af1158015610e77573d6000803e3d6000fd5b505050506040513d601f19601f82011682018060405250810190610e9b91906133fa565b9050336008600083815260200190815260200160002060006101000a81548173ffffffffffffffffffffffffffffffffffffffff021916908373ffffffffffffffffffffffffffffffffffffffff1602179055503373ffffffffffffffffffffffffffffffffffffffff16817f6dda019348d2d508181a75ff7aaba394756db94a202e2f20b340b2868476606060405160405180910390a390565b6000600760009054906101000a900473ffffffffffffffffffffffffffffffffffffffff16905090565b606060018054610f6f90612f96565b80601f0160208091040260200160405190810160405280929190818152602001828054610f9b90612f96565b8015610fe85780601f10610fbd57610100808354040283529160200191610fe8565b820191906000526020600020905b815481529060010190602001808311610fcb57829003601f168201915b5050505050905090565b611004610ffd611453565b8383611bbe565b5050565b600080600090506000611019610b73565b905060005b600481101561109c5782851015801561104d5750818160048110611045576110446131a7565b5b602002015185105b1561106f5780600381111561106557611064612d5d565b5b93505050506110cf565b818160048110611082576110816131a7565b5b60200201519250808061109490613456565b91505061101e565b506040517f4b145a0700000000000000000000000000000000000000000000000000000000815260040160405180910390fd5b919050565b60006008600083815260200190815260200160002060009054906101000a900473ffffffffffffffffffffffffffffffffffffffff169050919050565b61112261111c611453565b836116ae565b611161576040517f08c379a000000000000000000000000000000000000000000000000000000000815260040161115890613187565b60405180910390fd5b61116d84848484611d2b565b50505050565b606061117e82611408565b600060066000848152602001908152602001600020805461119e90612f96565b80601f01602080910402602001604051908101604052809291908181526020018280546111ca90612f96565b80156112175780601f106111ec57610100808354040283529160200191611217565b820191906000526020600020905b8154815290600101906020018083116111fa57829003601f168201915b505050505090506000611228611d87565b905060008151141561123e578192505050611281565b60008251111561127357808260405160200161125b9291906134db565b60405160208183030381529060405292505050611281565b61127c84611d9e565b925050505b919050565b6000600560008473ffffffffffffffffffffffffffffffffffffffff1673ffffffffffffffffffffffffffffffffffffffff16815260200190815260200160002060008373ffffffffffffffffffffffffffffffffffffffff1673ffffffffffffffffffffffffffffffffffffffff16815260200190815260200160002060009054906101000a900460ff16905092915050565b611322611a3d565b600073ffffffffffffffffffffffffffffffffffffffff168173ffffffffffffffffffffffffffffffffffffffff161415611392576040517f08c379a000000000000000000000000000000000000000000000000000000000815260040161138990613571565b60405180910390fd5b61139b81611af8565b50565b60007f01ffc9a7000000000000000000000000000000000000000000000000000000007bffffffffffffffffffffffffffffffffffffffffffffffffffffffff1916827bffffffffffffffffffffffffffffffffffffffffffffffffffffffff1916149050919050565b61141181611e06565b611450576040517f08c379a000000000000000000000000000000000000000000000000000000000815260040161144790613268565b60405180910390fd5b50565b600033905090565b816004600083815260200190815260200160002060006101000a81548173ffffffffffffffffffffffffffffffffffffffff021916908373ffffffffffffffffffffffffffffffffffffffff160217905550808273ffffffffffffffffffffffffffffffffffffffff166114ce83610ba5565b73ffffffffffffffffffffffffffffffffffffffff167f8c5be1e5ebec7d5bd14f71427d1e84f3dd0314c0f7b2291e5b200ac8c7c3b92560405160405180910390a45050565b60006008600084815260200190815260200160002060009054906101000a900473ffffffffffffffffffffffffffffffffffffffff16905060006009549050600060648460008151811061156b5761156a6131a7565b5b602002602001015161157d91906135c0565b9050600061158a82611008565b9050600160095461159b91906135f1565b6009819055506115ab8484611e47565b61166d83600a8360038111156115c4576115c3612d5d565b5b815481106115d5576115d46131a7565b5b9060005260206000200180546115ea90612f96565b80601f016020809104026020016040519081016040528092919081815260200182805461161690612f96565b80156116635780601f1061163857610100808354040283529160200191611663565b820191906000526020600020905b81548152906001019060200180831161164657829003601f168201915b5050505050611e65565b7f90fa32e3fe9fb40a9df8c13411bef3430cfd4ef3c7dab6a9e94edce9e8123fb7818560405161169e929190613647565b60405180910390a1505050505050565b6000806116ba83610ba5565b90508073ffffffffffffffffffffffffffffffffffffffff168473ffffffffffffffffffffffffffffffffffffffff1614806116fc57506116fb8185611286565b5b8061173a57508373ffffffffffffffffffffffffffffffffffffffff1661172284610771565b73ffffffffffffffffffffffffffffffffffffffff16145b91505092915050565b8273ffffffffffffffffffffffffffffffffffffffff1661176382610ba5565b73ffffffffffffffffffffffffffffffffffffffff16146117b9576040517f08c379a00000000000000000000000000000000000000000000000000000000081526004016117b0906136e2565b60405180910390fd5b600073ffffffffffffffffffffffffffffffffffffffff168273ffffffffffffffffffffffffffffffffffffffff161415611829576040517f08c379a000000000000000000000000000000000000000000000000000000000815260040161182090613774565b60405180910390fd5b6118368383836001611ed9565b8273ffffffffffffffffffffffffffffffffffffffff1661185682610ba5565b73ffffffffffffffffffffffffffffffffffffffff16146118ac576040517f08c379a00000000000000000000000000000000000000000000000000000000081526004016118a3906136e2565b60405180910390fd5b6004600082815260200190815260200160002060006101000a81549073ffffffffffffffffffffffffffffffffffffffff02191690556001600360008573ffffffffffffffffffffffffffffffffffffffff1673ffffffffffffffffffffffffffffffffffffffff168152602001908152602001600020600082825403925050819055506001600360008473ffffffffffffffffffffffffffffffffffffffff1673ffffffffffffffffffffffffffffffffffffffff16815260200190815260200160002060008282540192505081905550816002600083815260200190815260200160002060006101000a81548173ffffffffffffffffffffffffffffffffffffffff021916908373ffffffffffffffffffffffffffffffffffffffff160217905550808273ffffffffffffffffffffffffffffffffffffffff168473ffffffffffffffffffffffffffffffffffffffff167fddf252ad1be2c89b69c2b068fc378daa952ba7f163c4a11628f55a4df523b3ef60405160405180910390a4611a388383836001611fff565b505050565b611a45611453565b73ffffffffffffffffffffffffffffffffffffffff16611a63610f36565b73ffffffffffffffffffffffffffffffffffffffff1614611ab9576040517f08c379a0000000000000000000000000000000000000000000000000000000008152600401611ab0906137e0565b60405180910390fd5b565b60006002600083815260200190815260200160002060009054906101000a900473ffffffffffffffffffffffffffffffffffffffff169050919050565b6000600760009054906101000a900473ffffffffffffffffffffffffffffffffffffffff16905081600760006101000a81548173ffffffffffffffffffffffffffffffffffffffff021916908373ffffffffffffffffffffffffffffffffffffffff1602179055508173ffffffffffffffffffffffffffffffffffffffff168173ffffffffffffffffffffffffffffffffffffffff167f8be0079c531659141344cd1fd0a4f28419497f9722a3daafe3b4186f6b6457e060405160405180910390a35050565b8173ffffffffffffffffffffffffffffffffffffffff168373ffffffffffffffffffffffffffffffffffffffff161415611c2d576040517f08c379a0000000000000000000000000000000000000000000000000000000008152600401611c249061384c565b60405180910390fd5b80600560008573ffffffffffffffffffffffffffffffffffffffff1673ffffffffffffffffffffffffffffffffffffffff16815260200190815260200160002060008473ffffffffffffffffffffffffffffffffffffffff1673ffffffffffffffffffffffffffffffffffffffff16815260200190815260200160002060006101000a81548160ff0219169083151502179055508173ffffffffffffffffffffffffffffffffffffffff168373ffffffffffffffffffffffffffffffffffffffff167f17307eab39ab6107e8899845ad3d59bd9653f200f220920489ca2b5937696c3183604051611d1e91906127dc565b60405180910390a3505050565b611d36848484611743565b611d4284848484612005565b611d81576040517f08c379a0000000000000000000000000000000000000000000000000000000008152600401611d78906138de565b60405180910390fd5b50505050565b606060405180602001604052806000815250905090565b6060611da982611408565b6000611db3611d87565b90506000815111611dd35760405180602001604052806000815250611dfe565b80611ddd8461219c565b604051602001611dee9291906134db565b6040516020818303038152906040525b915050919050565b60008073ffffffffffffffffffffffffffffffffffffffff16611e2883611abb565b73ffffffffffffffffffffffffffffffffffffffff1614159050919050565b611e61828260405180602001604052806000815250612274565b5050565b611e6e82611e06565b611ead576040517f08c379a0000000000000000000000000000000000000000000000000000000008152600401611ea490613970565b60405180910390fd5b80600660008481526020019081526020016000209080519060200190611ed4929190612685565b505050565b6001811115611ff957600073ffffffffffffffffffffffffffffffffffffffff168473ffffffffffffffffffffffffffffffffffffffff1614611f6d5780600360008673ffffffffffffffffffffffffffffffffffffffff1673ffffffffffffffffffffffffffffffffffffffff1681526020019081526020016000206000828254611f659190613990565b925050819055505b600073ffffffffffffffffffffffffffffffffffffffff168373ffffffffffffffffffffffffffffffffffffffff1614611ff85780600360008573ffffffffffffffffffffffffffffffffffffffff1673ffffffffffffffffffffffffffffffffffffffff1681526020019081526020016000206000828254611ff091906135f1565b925050819055505b5b50505050565b50505050565b60006120268473ffffffffffffffffffffffffffffffffffffffff166122cf565b1561218f578373ffffffffffffffffffffffffffffffffffffffff1663150b7a0261204f611453565b8786866040518563ffffffff1660e01b81526004016120719493929190613a19565b602060405180830381600087803b15801561208b57600080fd5b505af19250505080156120bc57506040513d601f19601f820116820180604052508101906120b99190613a7a565b60015b61213f573d80600081146120ec576040519150601f19603f3d011682016040523d82523d6000602084013e6120f1565b606091505b50600081511415612137576040517f08c379a000000000000000000000000000000000000000000000000000000000815260040161212e906138de565b60405180910390fd5b805181602001fd5b63150b7a0260e01b7bffffffffffffffffffffffffffffffffffffffffffffffffffffffff1916817bffffffffffffffffffffffffffffffffffffffffffffffffffffffff191614915050612194565b600190505b949350505050565b6060600060016121ab846122f2565b01905060008167ffffffffffffffff8111156121ca576121c96129e2565b5b6040519080825280601f01601f1916602001820160405280156121fc5781602001600182028036833780820191505090505b509050600082602001820190505b600115612269578080600190039150507f3031323334353637383961626364656600000000000000000000000000000000600a86061a8153600a858161225357612252613591565b5b049450600085141561226457612269565b61220a565b819350505050919050565b61227e8383612445565b61228b6000848484612005565b6122ca576040517f08c379a00000000000000000000000000000000000000000000000000000000081526004016122c1906138de565b60405180910390fd5b505050565b6000808273ffffffffffffffffffffffffffffffffffffffff163b119050919050565b600080600090507a184f03e93ff9f4daa797ed6e38ed64bf6a1f0100000000000000008310612350577a184f03e93ff9f4daa797ed6e38ed64bf6a1f010000000000000000838161234657612345613591565b5b0492506040810190505b6d04ee2d6d415b85acef8100000000831061238d576d04ee2d6d415b85acef8100000000838161238357612382613591565b5b0492506020810190505b662386f26fc1000083106123bc57662386f26fc1000083816123b2576123b1613591565b5b0492506010810190505b6305f5e10083106123e5576305f5e10083816123db576123da613591565b5b0492506008810190505b612710831061240a576127108381612400576123ff613591565b5b0492506004810190505b6064831061242d576064838161242357612422613591565b5b0492506002810190505b600a831061243c576001810190505b80915050919050565b600073ffffffffffffffffffffffffffffffffffffffff168273ffffffffffffffffffffffffffffffffffffffff1614156124b5576040517f08c379a00000000000000000000000000000000000000000000000000000000081526004016124ac90613af3565b60405180910390fd5b6124be81611e06565b156124fe576040517f08c379a00000000000000000000000000000000000000000000000000000000081526004016124f590613b5f565b60405180910390fd5b61250c600083836001611ed9565b61251581611e06565b15612555576040517f08c379a000000000000000000000000000000000000000000000000000000000815260040161254c90613b5f565b60405180910390fd5b6001600360008473ffffffffffffffffffffffffffffffffffffffff1673ffffffffffffffffffffffffffffffffffffffff16815260200190815260200160002060008282540192505081905550816002600083815260200190815260200160002060006101000a81548173ffffffffffffffffffffffffffffffffffffffff021916908373ffffffffffffffffffffffffffffffffffffffff160217905550808273ffffffffffffffffffffffffffffffffffffffff16600073ffffffffffffffffffffffffffffffffffffffff167fddf252ad1be2c89b69c2b068fc378daa952ba7f163c4a11628f55a4df523b3ef60405160405180910390a461265f600083836001611fff565b5050565b6040518060800160405280600490602082028036833780820191505090505090565b82805461269190612f96565b90600052602060002090601f0160209004810192826126b357600085556126fa565b82601f106126cc57805160ff19168380011785556126fa565b828001600101855582156126fa579182015b828111156126f95782518255916020019190600101906126de565b5b509050612707919061270b565b5090565b5b8082111561272457600081600090555060010161270c565b5090565b6000604051905090565b600080fd5b600080fd5b60007fffffffff0000000000000000000000000000000000000000000000000000000082169050919050565b6127718161273c565b811461277c57600080fd5b50565b60008135905061278e81612768565b92915050565b6000602082840312156127aa576127a9612732565b5b60006127b88482850161277f565b91505092915050565b60008115159050919050565b6127d6816127c1565b82525050565b60006020820190506127f160008301846127cd565b92915050565b600081519050919050565b600082825260208201905092915050565b60005b83811015612831578082015181840152602081019050612816565b83811115612840576000848401525b50505050565b6000601f19601f8301169050919050565b6000612862826127f7565b61286c8185612802565b935061287c818560208601612813565b61288581612846565b840191505092915050565b600060208201905081810360008301526128aa8184612857565b905092915050565b6000819050919050565b6128c5816128b2565b81146128d057600080fd5b50565b6000813590506128e2816128bc565b92915050565b6000602082840312156128fe576128fd612732565b5b600061290c848285016128d3565b91505092915050565b600073ffffffffffffffffffffffffffffffffffffffff82169050919050565b600061294082612915565b9050919050565b61295081612935565b82525050565b600060208201905061296b6000830184612947565b92915050565b61297a81612935565b811461298557600080fd5b50565b60008135905061299781612971565b92915050565b600080604083850312156129b4576129b3612732565b5b60006129c285828601612988565b92505060206129d3858286016128d3565b9150509250929050565b600080fd5b7f4e487b7100000000000000000000000000000000000000000000000000000000600052604160045260246000fd5b612a1a82612846565b810181811067ffffffffffffffff82111715612a3957612a386129e2565b5b80604052505050565b6000612a4c612728565b9050612a588282612a11565b919050565b600067ffffffffffffffff821115612a7857612a776129e2565b5b602082029050602081019050919050565b600080fd5b6000612aa1612a9c84612a5d565b612a42565b90508083825260208201905060208402830185811115612ac457612ac3612a89565b5b835b81811015612aed5780612ad988826128d3565b845260208401935050602081019050612ac6565b5050509392505050565b600082601f830112612b0c57612b0b6129dd565b5b8135612b1c848260208601612a8e565b91505092915050565b60008060408385031215612b3c57612b3b612732565b5b6000612b4a858286016128d3565b925050602083013567ffffffffffffffff811115612b6b57612b6a612737565b5b612b7785828601612af7565b9150509250929050565b600080600060608486031215612b9a57612b99612732565b5b6000612ba886828701612988565b9350506020612bb986828701612988565b9250506040612bca868287016128d3565b9150509250925092565b600060049050919050565b600081905092915050565b6000819050919050565b612bfd816128b2565b82525050565b6000612c0f8383612bf4565b60208301905092915050565b6000602082019050919050565b612c3181612bd4565b612c3b8184612bdf565b9250612c4682612bea565b8060005b83811015612c77578151612c5e8782612c03565b9650612c6983612c1b565b925050600181019050612c4a565b505050505050565b6000608082019050612c946000830184612c28565b92915050565b612ca3816128b2565b82525050565b6000602082019050612cbe6000830184612c9a565b92915050565b600060208284031215612cda57612cd9612732565b5b6000612ce884828501612988565b91505092915050565b612cfa816127c1565b8114612d0557600080fd5b50565b600081359050612d1781612cf1565b92915050565b60008060408385031215612d3457612d33612732565b5b6000612d4285828601612988565b9250506020612d5385828601612d08565b9150509250929050565b7f4e487b7100000000000000000000000000000000000000000000000000000000600052602160045260246000fd5b60048110612d9d57612d9c612d5d565b5b50565b6000819050612dae82612d8c565b919050565b6000612dbe82612da0565b9050919050565b612dce81612db3565b82525050565b6000602082019050612de96000830184612dc5565b92915050565b600080fd5b600067ffffffffffffffff821115612e0f57612e0e6129e2565b5b612e1882612846565b9050602081019050919050565b82818337600083830152505050565b6000612e47612e4284612df4565b612a42565b905082815260208101848484011115612e6357612e62612def565b5b612e6e848285612e25565b509392505050565b600082601f830112612e8b57612e8a6129dd565b5b8135612e9b848260208601612e34565b91505092915050565b60008060008060808587031215612ebe57612ebd612732565b5b6000612ecc87828801612988565b9450506020612edd87828801612988565b9350506040612eee878288016128d3565b925050606085013567ffffffffffffffff811115612f0f57612f0e612737565b5b612f1b87828801612e76565b91505092959194509250565b60008060408385031215612f3e57612f3d612732565b5b6000612f4c85828601612988565b9250506020612f5d85828601612988565b9150509250929050565b7f4e487b7100000000000000000000000000000000000000000000000000000000600052602260045260246000fd5b60006002820490506001821680612fae57607f821691505b60208210811415612fc257612fc1612f67565b5b50919050565b7f4552433732313a20617070726f76616c20746f2063757272656e74206f776e6560008201527f7200000000000000000000000000000000000000000000000000000000000000602082015250565b6000613024602183612802565b915061302f82612fc8565b604082019050919050565b6000602082019050818103600083015261305381613017565b9050919050565b7f4552433732313a20617070726f76652063616c6c6572206973206e6f7420746f60008201527f6b656e206f776e6572206f7220617070726f76656420666f7220616c6c000000602082015250565b60006130b6603d83612802565b91506130c18261305a565b604082019050919050565b600060208201905081810360008301526130e5816130a9565b9050919050565b60006040820190506131016000830185612947565b61310e6020830184612947565b9392505050565b7f4552433732313a2063616c6c6572206973206e6f7420746f6b656e206f776e6560008201527f72206f7220617070726f76656400000000000000000000000000000000000000602082015250565b6000613171602d83612802565b915061317c82613115565b604082019050919050565b600060208201905081810360008301526131a081613164565b9050919050565b7f4e487b7100000000000000000000000000000000000000000000000000000000600052603260045260246000fd5b600081905092915050565b50565b60006131f16000836131d6565b91506131fc826131e1565b600082019050919050565b6000613212826131e4565b9150819050919050565b7f4552433732313a20696e76616c696420746f6b656e2049440000000000000000600082015250565b6000613252601883612802565b915061325d8261321c565b602082019050919050565b6000602082019050818103600083015261328181613245565b9050919050565b7f4552433732313a2061646472657373207a65726f206973206e6f74206120766160008201527f6c6964206f776e65720000000000000000000000000000000000000000000000602082015250565b60006132e4602983612802565b91506132ef82613288565b604082019050919050565b60006020820190508181036000830152613313816132d7565b9050919050565b6000819050919050565b61332d8161331a565b82525050565b600067ffffffffffffffff82169050919050565b61335081613333565b82525050565b600061ffff82169050919050565b61336d81613356565b82525050565b600063ffffffff82169050919050565b61338c81613373565b82525050565b600060a0820190506133a76000830188613324565b6133b46020830187613347565b6133c16040830186613364565b6133ce6060830185613383565b6133db6080830184613383565b9695505050505050565b6000815190506133f4816128bc565b92915050565b6000602082840312156134105761340f612732565b5b600061341e848285016133e5565b91505092915050565b7f4e487b7100000000000000000000000000000000000000000000000000000000600052601160045260246000fd5b6000613461826128b2565b91507fffffffffffffffffffffffffffffffffffffffffffffffffffffffffffffffff82141561349457613493613427565b5b600182019050919050565b600081905092915050565b60006134b5826127f7565b6134bf818561349f565b93506134cf818560208601612813565b80840191505092915050565b60006134e782856134aa565b91506134f382846134aa565b91508190509392505050565b7f4f776e61626c653a206e6577206f776e657220697320746865207a65726f206160008201527f6464726573730000000000000000000000000000000000000000000000000000602082015250565b600061355b602683612802565b9150613566826134ff565b604082019050919050565b6000602082019050818103600083015261358a8161354e565b9050919050565b7f4e487b7100000000000000000000000000000000000000000000000000000000600052601260045260246000fd5b60006135cb826128b2565b91506135d6836128b2565b9250826135e6576135e5613591565b5b828206905092915050565b60006135fc826128b2565b9150613607836128b2565b9250827fffffffffffffffffffffffffffffffffffffffffffffffffffffffffffffffff0382111561363c5761363b613427565b5b828201905092915050565b600060408201905061365c6000830185612dc5565b6136696020830184612947565b9392505050565b7f4552433732313a207472616e736665722066726f6d20696e636f72726563742060008201527f6f776e6572000000000000000000000000000000000000000000000000000000602082015250565b60006136cc602583612802565b91506136d782613670565b604082019050919050565b600060208201905081810360008301526136fb816136bf565b9050919050565b7f4552433732313a207472616e7366657220746f20746865207a65726f2061646460008201527f7265737300000000000000000000000000000000000000000000000000000000602082015250565b600061375e602483612802565b915061376982613702565b604082019050919050565b6000602082019050818103600083015261378d81613751565b9050919050565b7f4f776e61626c653a2063616c6c6572206973206e6f7420746865206f776e6572600082015250565b60006137ca602083612802565b91506137d582613794565b602082019050919050565b600060208201905081810360008301526137f9816137bd565b9050919050565b7f4552433732313a20617070726f766520746f2063616c6c657200000000000000600082015250565b6000613836601983612802565b915061384182613800565b602082019050919050565b6000602082019050818103600083015261386581613829565b9050919050565b7f4552433732313a207472616e7366657220746f206e6f6e20455243373231526560008201527f63656976657220696d706c656d656e7465720000000000000000000000000000602082015250565b60006138c8603283612802565b91506138d38261386c565b604082019050919050565b600060208201905081810360008301526138f7816138bb565b9050919050565b7f45524337323155524953746f726167653a2055524920736574206f66206e6f6e60008201527f6578697374656e7420746f6b656e000000000000000000000000000000000000602082015250565b600061395a602e83612802565b9150613965826138fe565b604082019050919050565b600060208201905081810360008301526139898161394d565b9050919050565b600061399b826128b2565b91506139a6836128b2565b9250828210156139b9576139b8613427565b5b828203905092915050565b600081519050919050565b600082825260208201905092915050565b60006139eb826139c4565b6139f581856139cf565b9350613a05818560208601612813565b613a0e81612846565b840191505092915050565b6000608082019050613a2e6000830187612947565b613a3b6020830186612947565b613a486040830185612c9a565b8181036060830152613a5a81846139e0565b905095945050505050565b600081519050613a7481612768565b92915050565b600060208284031215613a9057613a8f612732565b5b6000613a9e84828501613a65565b91505092915050565b7f4552433732313a206d696e7420746f20746865207a65726f2061646472657373600082015250565b6000613add602083612802565b9150613ae882613aa7565b602082019050919050565b60006020820190508181036000830152613b0c81613ad0565b9050919050565b7f4552433732313a20746f6b656e20616c7265616479206d696e74656400000000600082015250565b6000613b49601c83612802565b9150613b5482613b13565b602082019050919050565b60006020820190508181036000830152613b7881613b3c565b905091905056fea2646970667358221220c0768b955bc61880145006fe27ca3a3df5bdc9de552c95bd085593dc1675a81d64736f6c63430008080033",
  "devdoc": {
    "kind": "dev",
    "methods": {
      "approve(address,uint256)": {
        "details": "See {IERC721-approve}."
      },
      "balanceOf(address)": {
        "details": "See {IERC721-balanceOf}."
      },
      "getApproved(uint256)": {
        "details": "See {IERC721-getApproved}."
      },
      "isApprovedForAll(address,address)": {
        "details": "See {IERC721-isApprovedForAll}."
      },
      "name()": {
        "details": "See {IERC721Metadata-name}."
      },
      "owner()": {
        "details": "Returns the address of the current owner."
      },
      "ownerOf(uint256)": {
        "details": "See {IERC721-ownerOf}."
      },
      "renounceOwnership()": {
        "details": "Leaves the contract without owner. It will not be possible to call `onlyOwner` functions anymore. Can only be called by the current owner. NOTE: Renouncing ownership will leave the contract without an owner, thereby removing any functionality that is only available to the owner."
      },
      "safeTransferFrom(address,address,uint256)": {
        "details": "See {IERC721-safeTransferFrom}."
      },
      "safeTransferFrom(address,address,uint256,bytes)": {
        "details": "See {IERC721-safeTransferFrom}."
      },
      "setApprovalForAll(address,bool)": {
        "details": "See {IERC721-setApprovalForAll}."
      },
      "supportsInterface(bytes4)": {
        "details": "See {IERC165-supportsInterface}."
      },
      "symbol()": {
        "details": "See {IERC721Metadata-symbol}."
      },
      "tokenURI(uint256)": {
        "details": "See {IERC721Metadata-tokenURI}."
      },
      "transferFrom(address,address,uint256)": {
        "details": "See {IERC721-transferFrom}."
      },
      "transferOwnership(address)": {
        "details": "Transfers ownership of the contract to a new account (`newOwner`). Can only be called by the current owner."
      }
    },
    "version": 1
  },
  "userdoc": {
    "kind": "user",
    "methods": {},
    "version": 1
  },
  "storageLayout": {
    "storage": [
      {
        "astId": 1296,
        "contract": "contracts/RandomIPFSNFT.sol:RandomIPFSNFT",
        "label": "_name",
        "offset": 0,
        "slot": "0",
        "type": "t_string_storage"
      },
      {
        "astId": 1298,
        "contract": "contracts/RandomIPFSNFT.sol:RandomIPFSNFT",
        "label": "_symbol",
        "offset": 0,
        "slot": "1",
        "type": "t_string_storage"
      },
      {
        "astId": 1302,
        "contract": "contracts/RandomIPFSNFT.sol:RandomIPFSNFT",
        "label": "_owners",
        "offset": 0,
        "slot": "2",
        "type": "t_mapping(t_uint256,t_address)"
      },
      {
        "astId": 1306,
        "contract": "contracts/RandomIPFSNFT.sol:RandomIPFSNFT",
        "label": "_balances",
        "offset": 0,
        "slot": "3",
        "type": "t_mapping(t_address,t_uint256)"
      },
      {
        "astId": 1310,
        "contract": "contracts/RandomIPFSNFT.sol:RandomIPFSNFT",
        "label": "_tokenApprovals",
        "offset": 0,
        "slot": "4",
        "type": "t_mapping(t_uint256,t_address)"
      },
      {
        "astId": 1316,
        "contract": "contracts/RandomIPFSNFT.sol:RandomIPFSNFT",
        "label": "_operatorApprovals",
        "offset": 0,
        "slot": "5",
        "type": "t_mapping(t_address,t_mapping(t_address,t_bool))"
      },
      {
        "astId": 2362,
        "contract": "contracts/RandomIPFSNFT.sol:RandomIPFSNFT",
        "label": "_tokenURIs",
        "offset": 0,
        "slot": "6",
        "type": "t_mapping(t_uint256,t_string_storage)"
      },
      {
        "astId": 1165,
        "contract": "contracts/RandomIPFSNFT.sol:RandomIPFSNFT",
        "label": "_owner",
        "offset": 0,
        "slot": "7",
        "type": "t_address"
      },
      {
        "astId": 4375,
        "contract": "contracts/RandomIPFSNFT.sol:RandomIPFSNFT",
        "label": "s_requestIdToSender",
        "offset": 0,
        "slot": "8",
        "type": "t_mapping(t_uint256,t_address)"
      },
      {
        "astId": 4377,
        "contract": "contracts/RandomIPFSNFT.sol:RandomIPFSNFT",
        "label": "s_tokenCounter",
        "offset": 0,
        "slot": "9",
        "type": "t_uint256"
      },
      {
        "astId": 4383,
        "contract": "contracts/RandomIPFSNFT.sol:RandomIPFSNFT",
        "label": "s_HunterUris",
        "offset": 0,
        "slot": "10",
        "type": "t_array(t_string_storage)dyn_storage"
      }
    ],
    "types": {
      "t_address": {
        "encoding": "inplace",
        "label": "address",
        "numberOfBytes": "20"
      },
      "t_array(t_string_storage)dyn_storage": {
        "base": "t_string_storage",
        "encoding": "dynamic_array",
        "label": "string[]",
        "numberOfBytes": "32"
      },
      "t_bool": {
        "encoding": "inplace",
        "label": "bool",
        "numberOfBytes": "1"
      },
      "t_mapping(t_address,t_bool)": {
        "encoding": "mapping",
        "key": "t_address",
        "label": "mapping(address => bool)",
        "numberOfBytes": "32",
        "value": "t_bool"
      },
      "t_mapping(t_address,t_mapping(t_address,t_bool))": {
        "encoding": "mapping",
        "key": "t_address",
        "label": "mapping(address => mapping(address => bool))",
        "numberOfBytes": "32",
        "value": "t_mapping(t_address,t_bool)"
      },
      "t_mapping(t_address,t_uint256)": {
        "encoding": "mapping",
        "key": "t_address",
        "label": "mapping(address => uint256)",
        "numberOfBytes": "32",
        "value": "t_uint256"
      },
      "t_mapping(t_uint256,t_address)": {
        "encoding": "mapping",
        "key": "t_uint256",
        "label": "mapping(uint256 => address)",
        "numberOfBytes": "32",
        "value": "t_address"
      },
      "t_mapping(t_uint256,t_string_storage)": {
        "encoding": "mapping",
        "key": "t_uint256",
        "label": "mapping(uint256 => string)",
        "numberOfBytes": "32",
        "value": "t_string_storage"
      },
      "t_string_storage": {
        "encoding": "bytes",
        "label": "string",
        "numberOfBytes": "32"
      },
      "t_uint256": {
        "encoding": "inplace",
        "label": "uint256",
        "numberOfBytes": "32"
      }
    }
  }
}